:100000000C9446000C9465000C9465000C946500FB
:100010000C9465000C9465000C9465000C946500CC
:100020000C9465000C9465000C9465000C946500BC
:100030000C9465000C94A3000C9465000C9465006E
:100040000C9465000C9465000C9465000C9465009C
:100050000C9465000C9465000C9465000C9465008C
:100060000C9465000C9465000C9465000C9465007C
:100070000C9465000C9465000C9465000C9465006C
:100080000C9465000C9465000C94650011241FBE4F
:10009000CFEFD0E4DEBFCDBF11E0A0E0B1E0EEEFE6
:1000A000F2E000E00BBF02C007900D92A431B1074F
:1000B000D9F711E0A4E1B1E001C01D92A032B1076F
:1000C000E1F70E9459010C947D010C940000CF933C
:1000D000C82F8A3019F48DE00E9467009091C0000B
:1000E00095FFFCCFC093C60080E090E0CF910895CB
:1000F0008BE0809381008DE790E09093890080935E
:10010000880082E080936F00109285001092840036
:100110008091010190910201A0910301B09104012D
:100120008093150190931601A0931701B0931801C5
:100130008FB780688FBF089510928100089581E085
:100140008093190108951F920F920FB60F921124F8
:100150000BB60F922F933F934F935F936F937F93C1
:100160008F939F93AF93BF93EF93FF93809115016C
:1001700090911601A0911701B09118010197A10962
:10018000B1098093150190931601A0931701B093C4
:100190001801892B8A2B8B2B91F40E949F00809150
:1001A000010190910201A0910301B091040180939B
:1001B000150190931601A0931701B0931801FF91B8
:1001C000EF91BF91AF919F918F917F916F915F91CF
:1001D0004F913F912F910F900BBE0F900FBE0F903C
:1001E0001F901895609301017093020180930301A1
:1001F0009093040160931501709316018093170189
:1002000090931801089580911C0190911D01892BF4
:1002100031F481E090E090931D0180931C01809166
:100220001C0190911D010197C9F480911401811165
:1002300004C081E0809314010895813021F482E0AC
:10024000809314010895823021F484E08093140196
:100250000895843019F481E0809314010895809109
:100260001E0190911F01892B31F481E090E0909361
:100270001F0180931E0180911E0190911F01019723
:1002800039F481E090910001911180E080930001A8
:10029000089580911A0190911B01892B49F4809156
:1002A0000001880F880F880F90911401892B85B960
:1002B00008958FEF84B915B810921D0110921C019A
:1002C00010921F0110921E0110921B0110921A0130
:1002D00068EE73E080E090E00E94F2000E947800F7
:1002E0000E9403010E942F010E944901809119017F
:0E02F0008823E1F310921901F3CFF894FFCFA9
:1002FE000101000000000000020000000067000085
:04030E0000000000EB
:00000001FF
