:100000000C9446000C9465000C9465000C946500FB
:100010000C9465000C9465000C9465000C946500CC
:100020000C9465000C9465000C9465000C946500BC
:100030000C9465000C946B010C9465000C946500A5
:100040000C9465000C9465000C9465000C9465009C
:100050000C9465000C9465000C9465000C9465008C
:100060000C9465000C9465000C9465000C9465007C
:100070000C9465000C9465000C9465000C9465006C
:100080000C9465000C9465000C94650011241FBE4F
:10009000CFEFD0E4DEBFCDBF11E0A0E0B1E0E8EDEE
:1000A000F8E000E00BBF02C007900D92A431B10749
:1000B000D9F721E0A4E1B1E001C01D92A732B20757
:1000C000E1F70E946E020C946A040C940000CF9336
:1000D000C82F8A3051F09091C00095FFFCCFC0939B
:1000E000C60090E080E0CF9108958DE00E94670007
:1000F000F2CF0F931F93CF93DF9300D000D000D0A7
:10010000CDB7DEB7062F172F8E839D8380911B01FD
:1001100090911C01A0911D01B0911E0189839A83C9
:10012000AB83BC83262F372F4E815D81BC01CD016F
:100130000E94D6028823F1F120E030E0A901098372
:100140001A839E819B83AD81AC8369817A818B8187
:100150009C810E94D602811138C0E1E9F0E08081E3
:100160008870808328E539E344E75FE309831A83D5
:10017000BE81BB838D818C8369817A818B819C81D7
:100180000E94D60288233CF58FEF9FEF9093990051
:10019000809398001092950010929400402F512F58
:1001A0006E817D8140931B0150931C0160931D0162
:1001B00070931E0126960FB6F894DEBF0FBECDBF1A
:1001C000DF91CF911F910F910895E1E9F0E08081D7
:1001D00083608083C7CF20E034E244EF56E4098394
:1001E0001A839E819B83AD81AC8369817A818B81E7
:1001F0009C810E94F80318162CF41092990010921A
:100200009800C8CF20E030E040E053E409831A832F
:10021000BE81BB838D818C8369817A818B819C8136
:100220000E94FD03262F372F482F592F60E074E2DC
:1002300084EF9AE40E94DB0269837A838B839C8338
:1002400069817A818B819C810E944D03462F572FB3
:100250004150510950939900409398009BCF80E4FE
:10026000809390008BE08093910060E070E0CB0180
:100270000E947900089510929000109291000895C4
:100280008BE0809381008DE790E0909389008093CC
:10029000880082E080936F001092850010928400A5
:1002A0008091020190910301A0910401B091050198
:1002B0008093160190931701A0931801B093190130
:1002C0008FB780688FBF089510928100089581E0F4
:1002D00080931A0108951F920F920FB60F92112466
:1002E0000BB60F922F933F934F935F936F937F9330
:1002F0008F939F93AF93BF93EF93FF9380911601DA
:1003000090911701A0911801B09119010197A109CD
:10031000B1098093160190931701A0931801B0932F
:100320001901892B8A2B8B2B99F0FF91EF91BF91AB
:10033000AF919F918F917F916F915F914F913F917D
:100340002F910F900BBE0F900FBE0F901F9018951E
:100350000E9467018091020190910301A091040124
:10036000B09105018093160190931701A093180195
:10037000B0931901DACF6093020170930301809367
:100380000401909305016093160170931701809307
:1003900018019093190108958091210190912201F3
:1003A000892B31F481E090E0909322018093210128
:1003B0008091210190912201019709F00895809187
:1003C0001501811104C081E08093150108958130E9
:1003D00041F0823051F0843089F781E0809315013B
:1003E000EDCF82E080931501089584E0809315019C
:1003F00008958091250190912601892B31F481E0A7
:1004000090E09093260180932501809125019091A1
:100410002601019709F0089581E090910101911161
:1004200080E080930101F7CF809123019091240116
:1004300081309105E9F08230910539F1892B89F0FD
:1004400080912301909124018230910540F102971F
:1004500029F581E090911401911180E080931401BD
:10046000089581E090E09093240180932301E8CFE8
:1004700080B190E08095909582FFE2CF82E090E09D
:100480009093240180932301DBCF029BD9CF81E09D
:1004900090E09093240180932301D2CF089510928D
:1004A0001401089580911F0190912001892BA9F4D6
:1004B00080910101282F30E0220F331F220F331FBC
:1004C000220F331F80911501822B2091140190E19E
:1004D000299F90011124822B85B908958FEF84B94B
:1004E00015B811B882B91092220110922101109210
:1004F00026011092250110922401109223011092DE
:10050000200110921F0161E070E080E090E00E9405
:10051000BB010E944001412C512C3201812C912CB5
:100520005401C12CD12C76012DC00E94CC01C12CCC
:10053000D12C760188EE881683E09806A104B104D8
:1005400048F58091000190E0B0E0A0E0481659061F
:100550006A067B0628F50E94520280911A018823C0
:10056000E1F310921A018FEFC81AD80AE80AF80AC4
:100570008FEF881A980AA80AB80A8FEF481A580A03
:10058000680A780A8CE2C81681E0D806E104F10412
:1005900088F2CBCF0E94F901812C912C5401D1CF4C
:1005A0000E941402412C512C3201D5CF0E948303AA
:1005B00008F481E008950E94EF020C94BE030E94AB
:1005C000B70358F00E94B00340F029F45F3F29F0D0
:1005D0000C94A70351110C94F2030C94AD030E94E8
:1005E000CF0368F39923B1F3552391F3951B550B72
:1005F000BB27AA2762177307840738F09F5F5F4FF6
:10060000220F331F441FAA1FA9F335D00E2E3AF034
:10061000E0E832D091505040E695001CCAF72BD04C
:10062000FE2F29D0660F771F881FBB1F261737079D
:100630004807AB07B0E809F0BB0B802DBF01FF27CF
:1006400093585F4F3AF09E3F510578F00C94A70302
:100650000C94F2035F3FE4F3983ED4F386957795CC
:100660006795B795F7959F5FC9F7880F911D969588
:10067000879597F90895E1E0660F771F881FBB1FE4
:10068000621773078407BA0720F0621B730B840B91
:10069000BA0BEE1F88F7E09508950E945403689402
:1006A000B1110C94F20308950E94D70388F09F576C
:1006B00098F0B92F9927B751B0F0E1F0660F771F86
:1006C000881F991F1AF0BA95C9F714C0B13091F07C
:1006D0000E94F103B1E008950C94F103672F782F85
:1006E0008827B85F39F0B93FCCF386957795679541
:1006F000B395D9F73EF490958095709561957F4FAD
:100700008F4F9F4F0895990F0008550FAA0BE0E8EF
:10071000FEEF16161706E807F907C0F012161306C3
:10072000E407F50798F0621B730B840B950B39F403
:100730000A2661F0232B242B252B21F408950A2669
:1007400009F4A140A6958FEF811D811D089597F9A9
:100750009F6780E870E060E008959FEF80EC089567
:1007600000240A9416161706180609060895002490
:100770000A9412161306140605060895092E03940A
:10078000000C11F4882352F0BB0F40F4BF2B11F47E
:1007900060FF04C06F5F7F4F8F4F9F4F089557FDDD
:1007A0009058440F551F59F05F3F71F04795880FDF
:1007B00097FB991F61F09F3F79F087950895121676
:1007C00013061406551FF2CF4695F1DF08C0161622
:1007D00017061806991FF1CF8695710561050894D3
:1007E0000895E894BB2766277727CB0197F90895EA
:1007F0000E94830308F48FEF08950E9410040C9464
:10080000BE030E94B00338F00E94B70320F0952386
:1008100011F00C94A7030C94AD0311240C94F20373
:100820000E94CF0370F3959FC1F3950F50E0551FC1
:10083000629FF001729FBB27F00DB11D639FAA2735
:10084000F00DB11DAA1F649F6627B00DA11D661F84
:10085000829F2227B00DA11D621F739FB00DA11DA5
:10086000621F839FA00D611D221F749F3327A00D5F
:10087000611D231F849F600D211D822F762F6A2FFB
:1008800011249F5750409AF0F1F088234AF0EE0F60
:10089000FF1FBB1F661F771F881F91505040A9F78D
:1008A0009E3F510580F00C94A7030C94F2035F3F28
:1008B000E4F3983ED4F3869577956795B795F795C9
:1008C000E7959F5FC1F7FE2B880F911D9695879541
:0808D00097F90895F894FFCF99
:1008D80002010100000000000002000000006700A3
:0408E800000000000C
:00000001FF
