:100000000C9446000C9465000C9465000C946500FB
:100010000C9465000C9465000C9465000C946500CC
:100020000C9465000C9465000C9465000C946500BC
:100030000C9465000C946B010C9465000C946500A5
:100040000C9465000C9465000C9465000C9465009C
:100050000C9465000C9465000C9465000C9465008C
:100060000C9465000C9465000C9465000C9465007C
:100070000C9465000C9465000C9465000C9465006C
:100080000C9465000C9465000C94650011241FBE4F
:10009000CFEFD0E4DEBFCDBF11E0A0E0B1E0E0E300
:1000A000F9E000E00BBF02C007900D92A833B10742
:1000B000D9F721E0A8E3B1E001C01D92AC34B2074A
:1000C000E1F70E949E020C9496040C940000CF93DA
:1000D000C82F8A3051F09091C00095FFFCCFC0939B
:1000E000C60090E080E0CF9108958DE00E94670007
:1000F000F2CF0F931F93CF93DF9300D000D000D0A7
:10010000CDB7DEB7062F172F8E839D8380914001D8
:1001100090914101A0914201B091430189839A835A
:10012000AB83BC83262F372F4E815D81BC01CD016F
:100130000E9402038823F1F120E030E0A901098345
:100140001A839E819B83AD81AC8369817A818B8187
:100150009C810E940203811138C0E1E9F0E08081B6
:100160008870808328E539E344E75FE309831A83D5
:10017000BE81BB838D818C8369817A818B819C81D7
:100180000E94020388233CF58FEF9FEF9093990024
:10019000809398001092950010929400402F512F58
:1001A0006E817D81409340015093410160934201F3
:1001B0007093430126960FB6F894DEBF0FBECDBFF5
:1001C000DF91CF911F910F910895E1E9F0E08081D7
:1001D00083608083C7CF20E034E244EF56E4098394
:1001E0001A839E819B83AD81AC8369817A818B81E7
:1001F0009C810E94240418162CF4109299001092ED
:100200009800C8CF20E030E040E053E409831A832F
:10021000BE81BB838D818C8369817A818B819C8136
:100220000E942904262F372F482F592F60E074E2AF
:1002300084EF9AE40E94070369837A838B839C830B
:1002400069817A818B819C810E947903462F572F87
:100250004150510950939900409398009BCF80E4FE
:10026000809390008BE08093910060E070E0CB0180
:100270000E947900089510929000109291000895C4
:100280008BE0809381008DE790E0909389008093CC
:10029000880082E080936F001092850010928400A5
:1002A0008091250190912601A0912701B09128010C
:1002B00080933B0190933C01A0933D01B0933E019C
:1002C0008FB780688FBF089510928100089581E0F4
:1002D00080933F0108951F920F920FB60F92112441
:1002E0000BB60F922F933F934F935F936F937F9330
:1002F0008F939F93AF93BF93EF93FF9380913B01B5
:1003000090913C01A0913D01B0913E010197A1095E
:10031000B10980933B0190933C01A0933D01B093C0
:100320003E01892B8A2B8B2B99F0FF91EF91BF9186
:10033000AF919F918F917F916F915F914F913F917D
:100340002F910F900BBE0F900FBE0F901F9018951E
:100350000E9467018091250190912601A0912701BB
:10036000B091280180933B0190933C01A0933D0103
:10037000B0933E01DACF60932501709326018093FC
:1003800027019093280160933B0170933C01809377
:100390003D0190933E01089580914601909147015F
:1003A000892B31F481E090E09093470180934601DE
:1003B0008091460190914701019709F0089580913D
:1003C0003A01811104C081E080933A01089581309F
:1003D00041F0823051F0843089F781E080933A0116
:1003E000EDCF82E080933A01089584E080933A0152
:1003F000089580914A0190914B01892B31F481E05D
:1004000090E090934B0180934A0180914A01909132
:100410004B01019709F0089581E090912401911119
:1004200080E080932401F7CF8091480190914901A9
:100430008530910548F58330910508F04BC0009751
:1004400071F1019791F580B190E08095909582FFD0
:1004500006C082E090E090934901809348010099A2
:1004600006C083E090E0909349018093480180B1F9
:1004700090E08095909581FF18C084E090E0909383
:1004800049018093480111C0059779F402990DC084
:1004900081E090E0909349018093480106C081E09B
:1004A00090E0909349018093480180914801909198
:1004B00049018430910531F1A8F482309105E0F0D2
:1004C000039779F4809138018730A0F48F5F80938F
:1004D0003801089585E090E09093490180934801A8
:1004E000E4CF0895059739F460E070E08AEF93E473
:1004F0000E9479000895089560E070E0CB010E94A9
:1005000079000895809138018823A1F38150809368
:10051000380108958091440190914501892B69F437
:100520008091240190E0880F991F880F991F880FF0
:10053000991F90913A01892B85B908958FEF84B95D
:1005400015B811B882B90E942F011092470110927C
:10055000460110924B0110924A01109245011092EF
:10056000440161E070E080E090E00E94BB010E94E5
:100570004001C12CD12C7601412C512C3201812C0F
:10058000912C540125C00E94CC01812C912C540146
:1005900026C00E94F901412C512C320127C00E9433
:1005A0008A020E94140280913F018823E1F3109295
:1005B0003F018FEF881A980AA80AB80A8FEF481AE5
:1005C000580A680A780A8FEFC81AD80AE80AF80A9F
:1005D0008CE2881681E09806A104B104A0F688EEAA
:1005E000481683E058066104710498F682E0C81644
:1005F000D104E104F10498F20E941402C12CD12C20
:100600007601CDCF0E94AF0308F481E008950E94E7
:100610001B030C94EA030E94E30358F00E94DC03DE
:1006200040F029F45F3F29F00C94D30351110C944E
:100630001E040C94D9030E94FB0368F39923B1F3C1
:10064000552391F3951B550BBB27AA2762177307F8
:10065000840738F09F5F5F4F220F331F441FAA1F8C
:10066000A9F335D00E2E3AF0E0E832D09150504048
:10067000E695001CCAF72BD0FE2F29D0660F771FF6
:10068000881FBB1F261737074807AB07B0E809F0DC
:10069000BB0B802DBF01FF2793585F4F3AF09E3F61
:1006A000510578F00C94D3030C941E045F3FE4F3DF
:1006B000983ED4F3869577956795B795F7959F5FA4
:1006C000C9F7880F911D9695879597F90895E1E0F0
:1006D000660F771F881FBB1F621773078407BA074F
:1006E00020F0621B730B840BBA0BEE1F88F7E095AA
:1006F00008950E9480036894B1110C941E0408951B
:100700000E94030488F09F5798F0B92F9927B7519A
:10071000B0F0E1F0660F771F881F991F1AF0BA95A5
:10072000C9F714C0B13091F00E941D04B1E00895E2
:100730000C941D04672F782F8827B85F39F0B93FD4
:10074000CCF3869577956795B395D9F73EF4909558
:100750008095709561957F4F8F4F9F4F0895990FAA
:100760000008550FAA0BE0E8FEEF16161706E8077B
:10077000F907C0F012161306E407F50798F0621B9C
:10078000730B840B950B39F40A2661F0232B242B71
:10079000252B21F408950A2609F4A140A6958FEF90
:1007A000811D811D089597F99F6780E870E060E0E2
:1007B00008959FEF80EC089500240A9416161706FA
:1007C00018060906089500240A9412161306140642
:1007D00005060895092E0394000C11F4882352F0A5
:1007E000BB0F40F4BF2B11F460FF04C06F5F7F4F5D
:1007F0008F4F9F4F089557FD9058440F551F59F044
:100800005F3F71F04795880F97FB991F61F09F3FFD
:1008100079F087950895121613061406551FF2CF26
:100820004695F1DF08C0161617061806991FF1CF76
:1008300086957105610508940895E894BB2766279D
:100840007727CB0197F908950E94AF0308F48FEF43
:1008500008950E943C040C94EA030E94DC0338F0E3
:100860000E94E30320F0952311F00C94D3030C9421
:10087000D90311240C941E040E94FB0370F3959F6E
:10088000C1F3950F50E0551F629FF001729FBB2787
:10089000F00DB11D639FAA27F00DB11DAA1F649F23
:1008A0006627B00DA11D661F829F2227B00DA11DD6
:1008B000621F739FB00DA11D621F839FA00D611D5C
:1008C000221F749F3327A00D611D231F849F600D7D
:1008D000211D822F762F6A2F11249F5750409AF0A6
:1008E000F1F088234AF0EE0FFF1FBB1F661F771F32
:1008F000881F91505040A9F79E3F510580F00C94FD
:10090000D3030C941E045F3FE4F3983ED4F3869522
:1009100077956795B795F795E7959F5FC1F7FE2B9C
:10092000880F911D9695879597F90895F894FFCFB4
:10093000A4D082437BD49243A4D0A443719DAE4300
:100940000000C4430000DC43A4F0F64300D002449E
:100950000000000001010000000000000200000093
:08096000006700000000000028
:00000001FF
